{
  "_format": "hh-sol-artifact-1",
  "contractName": "TaskContract",
  "sourceName": "contracts/TaskContract.sol",
  "abi": [
    {
      "anonymous": false,
      "inputs": [
        {
          "indexed": false,
          "internalType": "address",
          "name": "recipient",
          "type": "address"
        },
        {
          "indexed": false,
          "internalType": "uint256",
          "name": "taskId",
          "type": "uint256"
        }
      ],
      "name": "AddTask",
      "type": "event"
    },
    {
      "anonymous": false,
      "inputs": [
        {
          "indexed": false,
          "internalType": "uint256",
          "name": "taskId",
          "type": "uint256"
        },
        {
          "indexed": false,
          "internalType": "bool",
          "name": "isTaskDeleted",
          "type": "bool"
        }
      ],
      "name": "DeleteTask",
      "type": "event"
    },
    {
      "inputs": [
        {
          "internalType": "string",
          "name": "taskDescription",
          "type": "string"
        },
        {
          "internalType": "bool",
          "name": "isTaskDeleted",
          "type": "bool"
        }
      ],
      "name": "addTask",
      "outputs": [],
      "stateMutability": "nonpayable",
      "type": "function"
    },
    {
      "inputs": [
        {
          "internalType": "uint256",
          "name": "taskId",
          "type": "uint256"
        },
        {
          "internalType": "bool",
          "name": "isTaskDeleted",
          "type": "bool"
        }
      ],
      "name": "deleteTask",
      "outputs": [],
      "stateMutability": "nonpayable",
      "type": "function"
    },
    {
      "inputs": [],
      "name": "getMyTask",
      "outputs": [
        {
          "components": [
            {
              "internalType": "uint256",
              "name": "id",
              "type": "uint256"
            },
            {
              "internalType": "string",
              "name": "taskDescription",
              "type": "string"
            },
            {
              "internalType": "bool",
              "name": "isTaskDeleted",
              "type": "bool"
            }
          ],
          "internalType": "struct TaskContract.Task[]",
          "name": "",
          "type": "tuple[]"
        }
      ],
      "stateMutability": "view",
      "type": "function"
    }
  ],
  "bytecode": "0x608060405234801561001057600080fd5b50610c91806100206000396000f3fe608060405234801561001057600080fd5b50600436106100415760003560e01c806320df458114610046578063aaba290714610062578063e08e86b81461007e575b600080fd5b610060600480360381019061005b91906107f6565b61009c565b005b61007c60048036038101906100779190610888565b6101c6565b005b6100866102a8565b6040516100939190610a80565b60405180910390f35b60008080549050905060006040518060600160405280838152602001858152602001841515815250908060018154018082558091505060019003906000526020600020906003020160009091909190915060008201518160000155602082015181600101908051906020019061011392919061059e565b5060408201518160020160006101000a81548160ff0219169083151502179055505050336001600083815260200190815260200160002060006101000a81548173ffffffffffffffffffffffffffffffffffffffff021916908373ffffffffffffffffffffffffffffffffffffffff1602179055507f1f54e1ba1832d428fbd7e7792beaf62b1fc5a382c207ffd614209c1413e94fda33826040516101b9929190610af2565b60405180910390a1505050565b3373ffffffffffffffffffffffffffffffffffffffff166001600084815260200190815260200160002060009054906101000a900473ffffffffffffffffffffffffffffffffffffffff1673ffffffffffffffffffffffffffffffffffffffff1614156102a457806000838154811061024257610241610b1b565b5b906000526020600020906003020160020160006101000a81548160ff0219169083151502179055507ff88a35c3d2016c409a46570b994a17b408dbc83c14a03f521512d50b85386d06828260405161029b929190610b59565b60405180910390a15b5050565b60606000808054905067ffffffffffffffff8111156102ca576102c9610693565b5b60405190808252806020026020018201604052801561030357816020015b6102f0610624565b8152602001906001900390816102e85790505b5090506000805b6000805490508110156104e4573373ffffffffffffffffffffffffffffffffffffffff166001600083815260200190815260200160002060009054906101000a900473ffffffffffffffffffffffffffffffffffffffff1673ffffffffffffffffffffffffffffffffffffffff161480156103bb5750600015156000828154811061039857610397610b1b565b5b906000526020600020906003020160020160009054906101000a900460ff161515145b156104d157600081815481106103d4576103d3610b1b565b5b90600052602060002090600302016040518060600160405290816000820154815260200160018201805461040790610bb1565b80601f016020809104026020016040519081016040528092919081815260200182805461043390610bb1565b80156104805780601f1061045557610100808354040283529160200191610480565b820191906000526020600020905b81548152906001019060200180831161046357829003601f168201915b505050505081526020016002820160009054906101000a900460ff1615151515815250508383815181106104b7576104b6610b1b565b5b602002602001018190525081806104cd90610c12565b9250505b80806104dc90610c12565b91505061030a565b5060008167ffffffffffffffff81111561050157610500610693565b5b60405190808252806020026020018201604052801561053a57816020015b610527610624565b81526020019060019003908161051f5790505b50905060005b828110156105945783818151811061055b5761055a610b1b565b5b602002602001015182828151811061057657610575610b1b565b5b6020026020010181905250808061058c90610c12565b915050610540565b5080935050505090565b8280546105aa90610bb1565b90600052602060002090601f0160209004810192826105cc5760008555610613565b82601f106105e557805160ff1916838001178555610613565b82800160010185558215610613579182015b828111156106125782518255916020019190600101906105f7565b5b5090506106209190610647565b5090565b604051806060016040528060008152602001606081526020016000151581525090565b5b80821115610660576000816000905550600101610648565b5090565b6000604051905090565b600080fd5b600080fd5b600080fd5b600080fd5b6000601f19601f8301169050919050565b7f4e487b7100000000000000000000000000000000000000000000000000000000600052604160045260246000fd5b6106cb82610682565b810181811067ffffffffffffffff821117156106ea576106e9610693565b5b80604052505050565b60006106fd610664565b905061070982826106c2565b919050565b600067ffffffffffffffff82111561072957610728610693565b5b61073282610682565b9050602081019050919050565b82818337600083830152505050565b600061076161075c8461070e565b6106f3565b90508281526020810184848401111561077d5761077c61067d565b5b61078884828561073f565b509392505050565b600082601f8301126107a5576107a4610678565b5b81356107b584826020860161074e565b91505092915050565b60008115159050919050565b6107d3816107be565b81146107de57600080fd5b50565b6000813590506107f0816107ca565b92915050565b6000806040838503121561080d5761080c61066e565b5b600083013567ffffffffffffffff81111561082b5761082a610673565b5b61083785828601610790565b9250506020610848858286016107e1565b9150509250929050565b6000819050919050565b61086581610852565b811461087057600080fd5b50565b6000813590506108828161085c565b92915050565b6000806040838503121561089f5761089e61066e565b5b60006108ad85828601610873565b92505060206108be858286016107e1565b9150509250929050565b600081519050919050565b600082825260208201905092915050565b6000819050602082019050919050565b6108fd81610852565b82525050565b600081519050919050565b600082825260208201905092915050565b60005b8381101561093d578082015181840152602081019050610922565b8381111561094c576000848401525b50505050565b600061095d82610903565b610967818561090e565b935061097781856020860161091f565b61098081610682565b840191505092915050565b610994816107be565b82525050565b60006060830160008301516109b260008601826108f4565b50602083015184820360208601526109ca8282610952565b91505060408301516109df604086018261098b565b508091505092915050565b60006109f6838361099a565b905092915050565b6000602082019050919050565b6000610a16826108c8565b610a2081856108d3565b935083602082028501610a32856108e4565b8060005b85811015610a6e5784840389528151610a4f85826109ea565b9450610a5a836109fe565b925060208a01995050600181019050610a36565b50829750879550505050505092915050565b60006020820190508181036000830152610a9a8184610a0b565b905092915050565b600073ffffffffffffffffffffffffffffffffffffffff82169050919050565b6000610acd82610aa2565b9050919050565b610add81610ac2565b82525050565b610aec81610852565b82525050565b6000604082019050610b076000830185610ad4565b610b146020830184610ae3565b9392505050565b7f4e487b7100000000000000000000000000000000000000000000000000000000600052603260045260246000fd5b610b53816107be565b82525050565b6000604082019050610b6e6000830185610ae3565b610b7b6020830184610b4a565b9392505050565b7f4e487b7100000000000000000000000000000000000000000000000000000000600052602260045260246000fd5b60006002820490506001821680610bc957607f821691505b60208210811415610bdd57610bdc610b82565b5b50919050565b7f4e487b7100000000000000000000000000000000000000000000000000000000600052601160045260246000fd5b6000610c1d82610852565b91507fffffffffffffffffffffffffffffffffffffffffffffffffffffffffffffffff821415610c5057610c4f610be3565b5b60018201905091905056fea2646970667358221220d1d8d39d05dfee973a3ac451ce8bb09a8595be39615a44973da73c245e6f82b664736f6c63430008090033",
  "linkReferences": {},
  "deployedLinkReferences": {}
}